{
  "contractName": "Wallet",
  "abi": [
    {
      "inputs": [
        {
          "internalType": "address[]",
          "name": "_approvers",
          "type": "address[]"
        },
        {
          "internalType": "uint256",
          "name": "_quorum",
          "type": "uint256"
        }
      ],
      "stateMutability": "nonpayable",
      "type": "constructor"
    },
    {
      "inputs": [
        {
          "internalType": "address",
          "name": "",
          "type": "address"
        },
        {
          "internalType": "uint256",
          "name": "",
          "type": "uint256"
        }
      ],
      "name": "approvals",
      "outputs": [
        {
          "internalType": "bool",
          "name": "",
          "type": "bool"
        }
      ],
      "stateMutability": "view",
      "type": "function",
      "constant": true
    },
    {
      "inputs": [
        {
          "internalType": "uint256",
          "name": "",
          "type": "uint256"
        }
      ],
      "name": "approvers",
      "outputs": [
        {
          "internalType": "address",
          "name": "",
          "type": "address"
        }
      ],
      "stateMutability": "view",
      "type": "function",
      "constant": true
    },
    {
      "inputs": [],
      "name": "nextTransferId",
      "outputs": [
        {
          "internalType": "uint256",
          "name": "",
          "type": "uint256"
        }
      ],
      "stateMutability": "view",
      "type": "function",
      "constant": true
    },
    {
      "inputs": [],
      "name": "quorum",
      "outputs": [
        {
          "internalType": "uint256",
          "name": "",
          "type": "uint256"
        }
      ],
      "stateMutability": "view",
      "type": "function",
      "constant": true
    },
    {
      "inputs": [
        {
          "internalType": "uint256",
          "name": "",
          "type": "uint256"
        }
      ],
      "name": "transfers",
      "outputs": [
        {
          "internalType": "uint256",
          "name": "id",
          "type": "uint256"
        },
        {
          "internalType": "address payable",
          "name": "to",
          "type": "address"
        },
        {
          "internalType": "uint256",
          "name": "amount",
          "type": "uint256"
        },
        {
          "internalType": "uint256",
          "name": "approvers",
          "type": "uint256"
        },
        {
          "internalType": "bool",
          "name": "sent",
          "type": "bool"
        }
      ],
      "stateMutability": "view",
      "type": "function",
      "constant": true
    },
    {
      "stateMutability": "payable",
      "type": "receive",
      "payable": true
    },
    {
      "inputs": [],
      "name": "getApprovers",
      "outputs": [
        {
          "internalType": "address[]",
          "name": "",
          "type": "address[]"
        }
      ],
      "stateMutability": "view",
      "type": "function",
      "constant": true
    },
    {
      "inputs": [],
      "name": "getTransfers",
      "outputs": [
        {
          "components": [
            {
              "internalType": "uint256",
              "name": "id",
              "type": "uint256"
            },
            {
              "internalType": "address payable",
              "name": "to",
              "type": "address"
            },
            {
              "internalType": "uint256",
              "name": "amount",
              "type": "uint256"
            },
            {
              "internalType": "uint256",
              "name": "approvers",
              "type": "uint256"
            },
            {
              "internalType": "bool",
              "name": "sent",
              "type": "bool"
            }
          ],
          "internalType": "struct Wallet.Transfer[]",
          "name": "",
          "type": "tuple[]"
        }
      ],
      "stateMutability": "view",
      "type": "function",
      "constant": true
    },
    {
      "inputs": [
        {
          "internalType": "address payable",
          "name": "_to",
          "type": "address"
        },
        {
          "internalType": "uint256",
          "name": "_amount",
          "type": "uint256"
        }
      ],
      "name": "createTransfer",
      "outputs": [],
      "stateMutability": "nonpayable",
      "type": "function"
    },
    {
      "inputs": [
        {
          "internalType": "uint256",
          "name": "_id",
          "type": "uint256"
        }
      ],
      "name": "approveTransfer",
      "outputs": [],
      "stateMutability": "nonpayable",
      "type": "function"
    }
  ],
  "bytecode": "0x60806040523480156200001157600080fd5b5060405162001356380380620013568339818101604052620000379190810190620001ef565b81600090805190602001906200004f9291906200005f565b5080600181905550505062000312565b828054828255906000526020600020908101928215620000db579160200282015b82811115620000da5782518260006101000a81548173ffffffffffffffffffffffffffffffffffffffff021916908373ffffffffffffffffffffffffffffffffffffffff1602179055509160200191906001019062000080565b5b509050620000ea9190620000ee565b5090565b6200013191905b808211156200012d57600081816101000a81549073ffffffffffffffffffffffffffffffffffffffff021916905550600101620000f5565b5090565b90565b6000815190506200014581620002de565b92915050565b600082601f8301126200015d57600080fd5b8151620001746200016e8262000277565b62000249565b915081818352602084019350602081019050838560208402820111156200019a57600080fd5b60005b83811015620001ce5781620001b3888262000134565b8452602084019350602083019250506001810190506200019d565b5050505092915050565b600081519050620001e981620002f8565b92915050565b600080604083850312156200020357600080fd5b600083015167ffffffffffffffff8111156200021e57600080fd5b6200022c858286016200014b565b92505060206200023f85828601620001d8565b9150509250929050565b6000604051905081810181811067ffffffffffffffff821117156200026d57600080fd5b8060405250919050565b600067ffffffffffffffff8211156200028f57600080fd5b602082029050602081019050919050565b6000620002ad82620002b4565b9050919050565b600073ffffffffffffffffffffffffffffffffffffffff82169050919050565b6000819050919050565b620002e981620002a0565b8114620002f557600080fd5b50565b6200030381620002d4565b81146200030f57600080fd5b50565b61103480620003226000396000f3fe60806040526004361061008a5760003560e01c80639377d711116100595780639377d71114610140578063b85b381b14610181578063cacca4a0146101ac578063d3650fb8146101d5578063ffabc6731461021257610091565b80631703a018146100965780632f65142c146100c15780633ac172dd146100ec5780636cb3e8ef1461011557610091565b3661009157005b600080fd5b3480156100a257600080fd5b506100ab61024f565b6040516100b89190610e6e565b60405180910390f35b3480156100cd57600080fd5b506100d6610255565b6040516100e39190610dd1565b60405180910390f35b3480156100f857600080fd5b50610113600480360361010e9190810190610a41565b610343565b005b34801561012157600080fd5b5061012a610516565b6040516101379190610daf565b60405180910390f35b34801561014c57600080fd5b5061016760048036036101629190810190610ab9565b6105a4565b604051610178959493929190610e89565b60405180910390f35b34801561018d57600080fd5b50610196610614565b6040516101a39190610e6e565b60405180910390f35b3480156101b857600080fd5b506101d360048036036101ce9190810190610ab9565b61061a565b005b3480156101e157600080fd5b506101fc60048036036101f79190810190610ab9565b610997565b6040516102099190610d94565b60405180910390f35b34801561021e57600080fd5b5061023960048036036102349190810190610a7d565b6109d3565b6040516102469190610df3565b60405180910390f35b60015481565b60606004805480602002602001604051908101604052809291908181526020016000905b8282101561033a57838290600052602060002090600502016040518060a0016040529081600082015481526020016001820160009054906101000a900473ffffffffffffffffffffffffffffffffffffffff1673ffffffffffffffffffffffffffffffffffffffff1673ffffffffffffffffffffffffffffffffffffffff16815260200160028201548152602001600382015481526020016004820160009054906101000a900460ff16151515158152505081526020019060010190610279565b50505050905090565b600080905060008090505b6000805490508110156103d8573373ffffffffffffffffffffffffffffffffffffffff166000828154811061037f57fe5b9060005260206000200160009054906101000a900473ffffffffffffffffffffffffffffffffffffffff1673ffffffffffffffffffffffffffffffffffffffff1614156103cb57600191505b808060010191505061034e565b5080610419576040517f08c379a000000000000000000000000000000000000000000000000000000000815260040161041090610e4e565b60405180910390fd5b60046040518060a0016040528060048054905081526020018573ffffffffffffffffffffffffffffffffffffffff168152602001848152602001600081526020016000151581525090806001815401808255809150506001900390600052602060002090600502016000909190919091506000820151816000015560208201518160010160006101000a81548173ffffffffffffffffffffffffffffffffffffffff021916908373ffffffffffffffffffffffffffffffffffffffff160217905550604082015181600201556060820151816003015560808201518160040160006101000a81548160ff0219169083151502179055505050505050565b6060600080548060200260200160405190810160405280929190818152602001828054801561059a57602002820191906000526020600020905b8160009054906101000a900473ffffffffffffffffffffffffffffffffffffffff1673ffffffffffffffffffffffffffffffffffffffff1681526020019060010190808311610550575b5050505050905090565b600481815481106105b157fe5b90600052602060002090600502016000915090508060000154908060010160009054906101000a900473ffffffffffffffffffffffffffffffffffffffff16908060020154908060030154908060040160009054906101000a900460ff16905085565b60025481565b600080905060008090505b6000805490508110156106af573373ffffffffffffffffffffffffffffffffffffffff166000828154811061065657fe5b9060005260206000200160009054906101000a900473ffffffffffffffffffffffffffffffffffffffff1673ffffffffffffffffffffffffffffffffffffffff1614156106a257600191505b8080600101915050610625565b50806106f0576040517f08c379a00000000000000000000000000000000000000000000000000000000081526004016106e790610e4e565b60405180910390fd5b600482815481106106fd57fe5b906000526020600020906005020160040160009054906101000a900460ff161561075c576040517f08c379a000000000000000000000000000000000000000000000000000000000815260040161075390610e0e565b60405180910390fd5b600360003373ffffffffffffffffffffffffffffffffffffffff1673ffffffffffffffffffffffffffffffffffffffff168152602001908152602001600020600083815260200190815260200160002060009054906101000a900460ff16156107fa576040517f08c379a00000000000000000000000000000000000000000000000000000000081526004016107f190610e2e565b60405180910390fd5b6001600360003373ffffffffffffffffffffffffffffffffffffffff1673ffffffffffffffffffffffffffffffffffffffff168152602001908152602001600020600084815260200190815260200160002060006101000a81548160ff0219169083151502179055506004828154811061087057fe5b906000526020600020906005020160030160008154809291906001019190505550600154600483815481106108a157fe5b90600052602060002090600502016003015410610993576001600483815481106108c757fe5b906000526020600020906005020160040160006101000a81548160ff021916908315150217905550600482815481106108fc57fe5b906000526020600020906005020160010160009054906101000a900473ffffffffffffffffffffffffffffffffffffffff1673ffffffffffffffffffffffffffffffffffffffff166108fc6004848154811061095457fe5b9060005260206000209060050201600201549081150290604051600060405180830381858888f19350505050158015610991573d6000803e3d6000fd5b505b5050565b600081815481106109a457fe5b906000526020600020016000915054906101000a900473ffffffffffffffffffffffffffffffffffffffff1681565b60036020528160005260406000206020528060005260406000206000915091509054906101000a900460ff1681565b600081359050610a1181610fb9565b92915050565b600081359050610a2681610fd0565b92915050565b600081359050610a3b81610fe7565b92915050565b60008060408385031215610a5457600080fd5b6000610a6285828601610a17565b9250506020610a7385828601610a2c565b9150509250929050565b60008060408385031215610a9057600080fd5b6000610a9e85828601610a02565b9250506020610aaf85828601610a2c565b9150509250929050565b600060208284031215610acb57600080fd5b6000610ad984828501610a2c565b91505092915050565b6000610aee8383610b30565b60208301905092915050565b6000610b068383610d0e565b60a08301905092915050565b610b1b81610f71565b82525050565b610b2a81610f71565b82525050565b610b3981610f5f565b82525050565b610b4881610f5f565b82525050565b6000610b5982610efc565b610b638185610f2c565b9350610b6e83610edc565b8060005b83811015610b9f578151610b868882610ae2565b9750610b9183610f12565b925050600181019050610b72565b5085935050505092915050565b6000610bb782610f07565b610bc18185610f3d565b9350610bcc83610eec565b8060005b83811015610bfd578151610be48882610afa565b9750610bef83610f1f565b925050600181019050610bd0565b5085935050505092915050565b610c1381610f83565b82525050565b610c2281610f83565b82525050565b6000610c35601e83610f4e565b91507f7472616e736665722068617320616c7265616479206265656e2073656e7400006000830152602082019050919050565b6000610c75602983610f4e565b91507f7472616e7366657220616c726561647920617070726f7665642062792074686960008301527f73206164647265737300000000000000000000000000000000000000000000006020830152604082019050919050565b6000610cdb601483610f4e565b91507f61646472657373206e6f7420617070726f7665640000000000000000000000006000830152602082019050919050565b60a082016000820151610d246000850182610d76565b506020820151610d376020850182610b12565b506040820151610d4a6040850182610d76565b506060820151610d5d6060850182610d76565b506080820151610d706080850182610c0a565b50505050565b610d7f81610faf565b82525050565b610d8e81610faf565b82525050565b6000602082019050610da96000830184610b3f565b92915050565b60006020820190508181036000830152610dc98184610b4e565b905092915050565b60006020820190508181036000830152610deb8184610bac565b905092915050565b6000602082019050610e086000830184610c19565b92915050565b60006020820190508181036000830152610e2781610c28565b9050919050565b60006020820190508181036000830152610e4781610c68565b9050919050565b60006020820190508181036000830152610e6781610cce565b9050919050565b6000602082019050610e836000830184610d85565b92915050565b600060a082019050610e9e6000830188610d85565b610eab6020830187610b21565b610eb86040830186610d85565b610ec56060830185610d85565b610ed26080830184610c19565b9695505050505050565b6000819050602082019050919050565b6000819050602082019050919050565b600081519050919050565b600081519050919050565b6000602082019050919050565b6000602082019050919050565b600082825260208201905092915050565b600082825260208201905092915050565b600082825260208201905092915050565b6000610f6a82610f8f565b9050919050565b6000610f7c82610f8f565b9050919050565b60008115159050919050565b600073ffffffffffffffffffffffffffffffffffffffff82169050919050565b6000819050919050565b610fc281610f5f565b8114610fcd57600080fd5b50565b610fd981610f71565b8114610fe457600080fd5b50565b610ff081610faf565b8114610ffb57600080fd5b5056fea2646970667358221220b482a2c40aa11df8bb2e15db7a0cf9866a434a4a8795991613915ef27981d6cb64736f6c63430006000033",
  "source": "// SPDX-License-Identifier: MIT\npragma solidity  ^0.6.0;\npragma experimental ABIEncoderV2;\n\ncontract Wallet{\n\n    constructor(address[] memory _approvers, uint _quorum) public {\n        approvers = _approvers;\n        quorum = _quorum;\n    }\n\n    address[] public approvers;\n    uint public quorum;\n    uint public nextTransferId;\n    mapping(address =>mapping(uint => bool)) public approvals; \n    struct Transfer{\n        uint id;\n        address payable to;\n        uint amount;\n        uint approvers;\n        bool sent;\n    }\n\n    Transfer[] public transfers;\n\n    function getApprovers() public view returns (address[] memory){\n        return approvers;\n    }\n\n    function getTransfers() public view returns (Transfer[] memory){\n        return transfers;\n    }\n\n    function createTransfer(address payable _to, uint _amount) public onlyApproved(){\n        transfers.push(Transfer(transfers.length, _to, _amount, 0, false));\n    }\n\n    function approveTransfer(uint _id) public onlyApproved(){\n        require(!transfers[_id].sent, 'transfer has already been sent');\n        require(!approvals[msg.sender][_id], 'transfer already approved by this address');\n        approvals[msg.sender][_id]=true;\n        transfers[_id].approvers++;\n        if(transfers[_id].approvers >= quorum){\n            transfers[_id].sent = true;\n            transfers[_id].to.transfer(transfers[_id].amount);\n        }\n    }\n\n    modifier onlyApproved() {\n        bool _approved = false;\n        for(uint i=0; i<approvers.length; i++){\n            if(approvers[i] == msg.sender){\n                _approved = true;\n            }\n        }\n        require(_approved, 'address not approved');\n        _;\n    }\n\n    receive() external payable {}\n    \n}",
  "sourcePath": "/Users/richardrobertson/eattheblocks/myprojects/wallet/contracts/Wallet.sol",
  "compiler": {
    "name": "solc",
    "version": "0.6.0+commit.26b70077.Emscripten.clang"
  },
  "schemaVersion": "3.4.10",
  "updatedAt": "2022-09-21T12:11:06.634Z",
  "networkType": "ethereum",
  "devdoc": {
    "methods": {}
  },
  "userdoc": {
    "methods": {}
  }
}